S01600007377753136365F70726F6A6563742E73726563BC
S113000092C00000AFC00000ADC00000ABC0000053
S1130010A9C00000A7C00000A5C00000A3C0000044
S1130020A1C000009FC000009DC000009BC0000054
S113003099C000001DC3000095C0000093C00000DB
S113004091C000008FC000008DC000008BC0000074
S113005089C0000087C0000085C0000083C0000084
S113006081C000007FC000007DC000007BC0000094
S113007079C0000077C0000075C0000073C00000A4
S113008071C000006FC000006DC00000C8078E077B
S1130090930798079D07A207B407B907BE07C307CC
S11300A0C70AD00AD90AE20AEB0AF40AFD0A060BC7
S11300B00F0B180B2A0B2A0B2A0B2A0B2A0B2A0BC1
S11300C02A0B2A0B2A0B2A0B2A0B2A0B2A0B2A0B84
S11300D02A0B2A0B2A0B2A0B2A0B2A0B2A0B2A0B74
S11300E02A0B2A0B2A0B2A0B2A0B2A0B2A0B2A0B64
S11300F02A0B2A0B2A0B2A0B2A0B2A0B2A0B2A0B54
S11301002A0B210BEE0B1D0C5C0C9B0CDA0C190D4D
S1130110580D970DD60D150E540E930ED20E110FC9
S1130120500F8F0FCE0F11241FBECFEFD0E4DEBFD0
S1130130CDBF11E0A0E0B1E0E0EEF9E200E00BBFDA
S113014002C007900D92A638B107D9F721E0A6E8BE
S1130150B1E001C01D92AD3BB207E1F70E946C1201
S11301600C94EE144DCFCF93DF93CDB7DEB781E07F
S11301701AD00000DF91CF910895CF93DF93CDB7CC
S1130180DEB784E690E0A7D088E30DD086E00BD0FC
S11301908FE009D081E007D08AE090E09CD0000095
S11301A0DF91CF910895CF93DF931F92CDB7DEB740
S11301B089838BE290E02BE230E0F90120812F7BF0
S11301C0FC01208388E290E02981FC0120838BE2FA
S11301D090E02BE230E0F90120812068FC012083CB
S11301E08BE290E02BE230E0F90120812F77FC01D3
S11301F0208382E090E06FD000000F90DF91CF91D8
S11302000895CF93DF931F92CDB7DEB789838BE236
S113021090E02BE230E0F90120812064FC0120838E
S113022088E290E02981FC0120838BE290E02BE2BC
S113023030E0F90120812068FC0120838BE290E00A
S11302402BE230E0F90120812F77FC0120830000AC
S11302500F90DF91CF910895CF93DF9300D000D01A
S1130260CDB7DEB78A837C836B837DDF8A81898304
S11302700FC0898191E0980F998318D08B819C815C
S11302809C012F5F3F4F3C832B83FC018081B9DFAE
S11302908B819C81FC018081882359F700000F9099
S11302A00F900F900F90DF91CF910895CF93DF932C
S11302B01F92CDB7DEB789838981813120F489818A
S11302C0815871DF03C0898181556DDF00000F9073
S11302D0DF91CF910895CF93DF9300D000D000D069
S11302E0CDB7DEB79E838D831A82198213C01C8218
S11302F01B8206C000008B819C8101969C838B83AA
S11303008B819C8187309340ACF389819A810196DB
S11303109A83898329813A818D819E81281739079F
S113032034F3000026960FB6F894DEBF0FBECDBF9F
S1130330DF91CF910895CF93DF9300D01F92CDB773
S1130340DEB789836A834B838B81882371F08A812A
S1130350282F30E081E090E002C0880F991F2A9591
S1130360E2F7982F8981892B0EC08A81282F30E0EB
S113037081E090E002C0880F991F2A95E2F7982F38
S11303809095898189230F900F900F90DF91CF91E1
S11303900895CF93DF9300D0CDB7DEB789836A8306
S11303A08A81282F30E081E090E002C0880F991FF5
S11303B02A95E2F7982F898189230F900F90DF9176
S11303C0CF9108950F931F93CF93DF93CDB7DEB7EB
S11303D002E210E040E064E08FEFADDFF8018083DB
S11303E0000080E290E0FC018081809560E0D1DF34
S11303F0882311F081E3C1C080E290E0FC01808198
S1130400809561E0C6DF882311F084E3B6C080E202
S113041090E0FC018081809562E0BBDF882311F0CD
S113042087E3ABC080E290E0FC018081809563E0CB
S1130430B0DF882311F08AE2A0C002E210E040E0BD
S113044065E08FEF78DFF8018083000080E290E0C0
S1130450FC018081809560E09CDF882311F082E3B9
S11304608CC080E290E0FC018081809561E091DFA6
S1130470882311F085E381C080E290E0FC01808153
S1130480809562E086DF882311F088E376C080E2FD
S113049090E0FC018081809563E07BDF882311F08C
S11304A080E36BC002E210E040E066E08FEF43DFE0
S11304B0F8018083000080E290E0FC018081809557
S11304C060E067DF882311F083E357C080E290E0A7
S11304D0FC018081809561E05CDF882311F086E374
S11304E04CC080E290E0FC018081809562E051DFA5
S11304F0882311F089E341C080E290E0FC0180810F
S1130500809563E046DF882311F083E236C002E27F
S113051010E040E067E08FEF0EDFF8018083000019
S113052080E290E0FC018081809560E032DF8823E6
S113053011F081E422C080E290E0FC01808180958A
S113054061E027DF882311F082E417C080E290E0A5
S1130550FC018081809562E01CDF882311F083E434
S11305600CC080E290E0FC018081809563E011DFA3
S1130570882311F084E401C080E0DF91CF911F91C2
S11305800F910895CF93DF9300D000D0CDB7DEB79D
S113059069837A838B839C8389819A81AB81BC81B3
S11305A08093000190930101A0930201B093030191
S11305B08091000190910101A0910201B091030189
S11305C08093870190938801A0938901B0938A0155
S11305D000000F900F900F900F90DF91CF9108952E
S11305E0CF93DF93CDB7DEB781E890E02BE0FC0139
S11305F0208388E890E02DE730E0FC0131832083FC
S11306008FE690E022E0FC01208384E890E0FC0186
S1130610118210828091000190910101A091020148
S1130620B09103018093870190938801A09389017D
S1130630B0938A018FE590E02FE530E0F901208145
S11306402068FC0120830000DF91CF910895CF93AF
S1130650DF93CDB7DEB781E08093860145D4DC011A
S1130660CB01BC01CD01A1D40000DF91CF9108954D
S11306701F920F9200905F000F92112400905B0074
S11306800F922F933F934F935F936F937F938F9327
S11306909F93AF93BF93EF93FF93CF93DF93CDB724
S11306A0DEB78091870190918801A0918901B09172
S11306B08A010197A109B109809387019093880168
S11306C0A0938901B0938A01809187019091880158
S11306D0A0918901B0918A01892B8A2B8B2B89F4F3
S11306E0B6DF8091000190910101A0910201B091C7
S11306F003018093870190938801A0938901B093AB
S11307008A010000DF91CF91FF91EF91BF91AF91EA
S11307109F918F917F916F915F914F913F912F9115
S11307200F9000925B000F9000925F000F901F905B
S11307301895CF93DF9300D0CDB7DEB78BD21A8252
S1130740198218C0898120D0898161E099D3898177
S113075060E0B0D3898160E04AD3898161E05CD3F1
S1130760898167E073D389810FD089819A81019649
S11307709A83898389819A81049724F300000F90D6
S11307800F90DF91CF910895CF93DF9300D01F9204
S1130790CDB7DEB78B831A82198217C08B81882F5D
S11307A090E09C01220F331F220F331F220F331FAF
S11307B089819A81820F931F8E569E4FFC0110826D
S11307C089819A8101969A83898389819A8108977C
S11307D02CF300000F900F900F90DF91CF910895AC
S11307E0AF92BF92CF92DF92EF92FF920F931F933B
S11307F0CF93DF93CDB7DEB72C970FB6F894DEBF57
S11308000FBECDBF8C830D831E832F83388749870A
S11308105A876B877C871A8219823AC08D818B83B1
S11308208C81282F30E047E050E089819A81BA0119
S1130830681B790BCB01220F331F220F331F220FAA
S1130840331F820F931F8E569E4F2B81FC012083F2
S11308502D813E814F81588569857A858B859C855C
S113086008E00E948114A22EB32EC42ED52EE62EAB
S1130870F72E082F192FAD82BE82CF82D886E98643
S1130880FA860B871C8789819A8101969A838983CA
S113089089819A81089714F200002C960FB6F89477
S11308A0DEBF0FBECDBFDF91CF911F910F91FF909F
S11308B0EF90DF90CF90BF90AF900895CF93DF93E8
S11308C0CDB7DEB727970FB6F894DEBF0FBECDBF06
S11308D08F831A821982A1C089819A818E569E4F74
S11308E0FC018081881F8827881F8B8389819A81D6
S11308F08E569E4FFC018081282F220F89819A8178
S11309008E569E4FFC01208389819A8186569E4F84
S1130910FC018081881F8827881F8C8389819A81A4
S113092086569E4FFC018081282F220F89819A814F
S113093086569E4FFC01208389819A8186569E4F5C
S1130940FC0190818B81292F282B89819A818656DD
S11309509E4FFC01208389819A818E559E4FFC0114
S11309608081881F8827881F8D8389819A818E556D
S11309709E4FFC018081282F220F89819A818E55F8
S11309809E4FFC01208389819A818E559E4FFC01E4
S113099090818C81292F282B89819A818E559E4F95
S11309A0FC01208389819A8186559E4FFC018081B8
S11309B0881F8827881F8E8389819A8186559E4F38
S11309C0FC018081282F220F89819A8186559E4FB0
S11309D0FC01208389819A8186559E4FFC01908178
S11309E08D81292F282B89819A8186559E4FFC0160
S11309F0208389819A818E569E4FFC0190818E813D
S1130A00292F282B89819A818E569E4FFC012083A1
S1130A1089819A8101969A83898389819A81089729
S1130A200CF45ACF000027960FB6F894DEBF0FBE21
S1130A30CDBFDF91CF910895CF93DF93CDB7DEB7CC
S1130A4027970FB6F894DEBF0FBECDBF8F831A82EF
S1130A501982B1C089819A8186559E4FFC0180819B
S1130A60882F90E09695982F8827979587958B8364
S1130A7089819A8186559E4FFC018081282F269575
S1130A8089819A8186559E4FFC01208389819A81B0
S1130A908E559E4FFC018081882F90E09695982F6B
S1130AA08827979587958C8389819A818E559E4F47
S1130AB0FC018081282F269589819A818E559E4F2D
S1130AC0FC01208389819A818E559E4FFC0190817F
S1130AD08B81292F282B89819A818E559E4FFC0169
S1130AE0208389819A8186569E4FFC018081882FBC
S1130AF090E09695982F8827979587958D8389817F
S1130B009A8186569E4FFC018081282F26958981E3
S1130B109A8186569E4FFC01208389819A8186564C
S1130B209E4FFC0190818C81292F282B89819A81E9
S1130B3086569E4FFC01208389819A818E569E4F52
S1130B40FC018081882F90E09695982F88279795AF
S1130B5087958E8389819A818E569E4FFC01808170
S1130B60282F269589819A818E569E4FFC012083D9
S1130B7089819A818E569E4FFC0190818D81292F07
S1130B80282B89819A818E569E4FFC01208389816E
S1130B909A8186559E4FFC0190818E81292F282BA6
S1130BA089819A8186559E4FFC01208389819A818F
S1130BB001969A83898389819A8108970CF44ACF94
S1130BC0000027960FB6F894DEBF0FBECDBFDF91AD
S1130BD0CF910895CF93DF9300D000D01F92CDB76B
S1130BE0DEB71A82198229C01C821B821DC089812A
S1130BF09A819C01220F331F220F331F220F331FB0
S1130C008B819C81820F931F8E569E4FFC018081A5
S1130C108D832D819B818981422F692FC8D08B813F
S1130C209C8101969C838B838B819C810897FCF229
S1130C3089819A8101969A83898389819A8104970B
S1130C409CF200000F900F900F900F900F90DF9187
S1130C50CF910895CF93DF93CDB7DEB784E290E0D0
S1130C6024E230E0F9012081206BFC01208330D0A4
S1130C7084E290E024E230E0F90120812F7BFC0142
S1130C80208385E290E025E230E0F90120812064B0
S1130C90FC0120838CE490E02CE430E0F901208115
S1130CA02065FC0120830000DF91CF910895CF934C
S1130CB0DF93CDB7DEB785E290E025E230E0F901BD
S1130CC020812F7EFC0120830000DF91CF910895C5
S1130CD0CF93DF93CDB7DEB785E290E025E230E035
S1130CE0F90120812061FC0120830000DF91CF9174
S1130CF00895CF93DF931F92CDB7DEB789838EE437
S1130D0090E02981FC0120838DE490E0FC01808146
S1130D108823D4F700000F90DF91CF910895CF93EB
S1130D20DF93CDB7DEB727970FB6F894DEBF0FBEBB
S1130D30CDBF8D836E834F838D81843070F5B7DF93
S1130D408D81882F90E09A83898309C080E0D1DF68
S1130D5080E0CFDF89819A8101969A838983898192
S1130D609A8103979CF38E81C4DF8F81C2DF1C823A
S1130D701B8209C080E0BDDF80E0BBDF8B819C81EA
S1130D8001969C838B838D81282F30E08B819C81FD
S1130D90821793077CF39CDF01C0000027960FB6EF
S1130DA0F894DEBF0FBECDBFDF91CF910895CF93EE
S1130DB0DF9300D01F92CDB7DEB789836A834B835C
S1130DC08981843058F48A81883050F49B818A81E7
S1130DD08F5F492F682F8981A2DF03C0000001C003
S1130DE000000F900F900F90DF91CF910895CF9353
S1130DF0DF9300D0CDB7DEB789836A8389818430DD
S1130E0028F44A8169E089818ADF01C000000F90DB
S1130E100F90DF91CF910895CF93DF9300D0CDB79A
S1130E20DEB789836A838981843050F48A81803172
S1130E3010F08FE08A834A816AE0898170DF01C003
S1130E4000000F900F90DF91CF910895CF93DF931F
S1130E5000D0CDB7DEB789836A838981843050F4AA
S1130E608A81883010F087E08A834A816BE0898127
S1130E7056DF01C000000F900F90DF91CF910895CD
S1130E80CF93DF9300D0CDB7DEB789836A8389819E
S1130E90843050F48A81823010F081E08A834A8160
S1130EA06CE089813CDF01C000000F900F90DF915E
S1130EB0CF910895CF93DF9300D0CDB7DEB7898368
S1130EC06A838981843050F48A81823010F081E011
S1130ED08A834A816FE0898122DF01C000000F907C
S1130EE00F90DF91CF910895CF93DF93CDB7DEB705
S1130EF069DA882F90E0092E000CAA0BBB0B40E3A3
S1130F0050E029E030E0841B950B2817390708F4DA
S1130F1044C08A5B9F4FFC010C94761480E090EDF2
S1130F20A2E0B4E43DC08FE195EDA2E1B4E438C0A1
S1130F3080E090EDA4E2B4E433C081E79DE9AEE241
S1130F40B4E42EC08091BC01833049F480918B01BC
S1130F508B3128F088EB9EEFA3ECB3E421C08CE541
S1130F609FEFA3E4B4E41CC080E090E0ACE5B4E4FB
S1130F7017C088E491EFA6E7B4E412C080E090EDD6
S1130F80A2E8B4E40DC08FE195EDA2E9B4E408C091
S1130F9082E590EDA4EAB4E403C080E090E0DC01D3
S1130FA0BC01CD01DF91CF9108950F931F93CF938F
S1130FB0DF9300D000D0CDB7DEB769837A838B830B
S1130FC09C8380918E0190918F01A0919001B091AA
S1130FD091019C01AD0169817A818B819C810E9480
S1130FE0AD12882309F472C020E030E0A9016981C0
S1130FF07A818B819C810E94AD12882351F485E40F
S113100090E025E430E0F90120812870FC01208380
S113101009C085E490E025E430E0F90120812360F3
S1131020FC01208328E539E344E75FE369817A81A1
S11310308B819C810E94AD12882334F487E490E074
S11310402FEFFC01208332C020E034E244EF56E469
S113105069817A818B819C810E94FC1318162CF47F
S113106087E490E0FC01108221C007E410E020E056
S113107030E040E053E469817A818B819C810E9455
S11310800014DC01CB019C01AD0160E074E284EF4B
S11310909AE40E94B112DC01CB01BC01CD010E9493
S11310A01913DC01CB018150F801808386E490E0C0
S11310B0FC01108289819A81AB81BC8180938E016D
S11310C090938F01A0939001B093910100000F9031
S11310D00F900F900F90DF91CF911F910F91089572
S11310E0CF93DF93CDB7DEB784E490E021E4FC0135
S11310F0208385E490E02BE0FC01208360E070E035
S1131100CB0153DF0000DF91CF910895CF93DF939C
S1131110CDB7DEB70EDB5EDD0000DF91CF91089521
S11311208F929F92AF92BF92CF92DF92EF92FF92F3
S11311300F931F93CF93DF93CDB7DEB7FADA812CE9
S1131140912CA12C0F2EFAE7BF2EF02D0F2EFAE0D2
S1131150CF2EF02D0F2EFAE3DF2EF02D0F2EFAE016
S1131160EF2EF02D0F2EFAE7FF2EF02D082D192D5E
S11311702A2D3B2D4C2D5D2D6E2D7F2D80E030DBF7
S1131180812C912CA12C0F2EF3E7BF2EF02D0F2EC6
S1131190F4E9CF2EF02D0F2EF4E9DF2EF02D0F2ED3
S11311A0F4E9EF2EF02D0F2EF3E7FF2EF02D082D8E
S11311B0192D2A2D3B2D4C2D5D2D6E2D7F2D81E07B
S11311C00FDB812C912CA12C0F2EFBE0BF2EF02DD8
S11311D00F2EF8E8CF2EF02D0F2EF9E8DF2EF02D8C
S11311E00F2EF8E8EF2EF02D0F2EFBE3FF2EF02D3F
S11311F0082D192D2A2D3B2D4C2D5D2D6E2D7F2D67
S113120082E0EEDA812C912CA12C0F2EF1EDBF2E71
S1131210F02D0F2EFBE5CF2EF02D0F2EF5EDDF2E4A
S1131220F02D0F2EF1E5EF2EF02D0F2EF1EDFF2E08
S1131230F02D082D192D2A2D3B2D4C2D5D2D6E2DB5
S11312407F2D83E0CDDAC6DC0000DF91CF911F91C2
S11312500F91FF90EF90DF90CF90BF90AF909F9051
S11312608F9008958F929F92AF92BF92CF92DF9208
S1131270EF92FF920F931F93CF93DF93CDB7DEB717
S113128058DA812C0F2EF6E69F2EF02D0F2EF6E65F
S1131290AF2EF02D0F2EF6E6BF2EF02D0F2EF6E614
S11312A0CF2EF02DD12C0F2EF6E6EF2EF02D0F2E93
S11312B0F6E6FF2EF02D082D192D2A2D3B2D4C2D51
S11312C05D2D6E2D7F2D80E08BDA812C0F2EF6ECB8
S11312D09F2EF02D0F2EFEECAF2EF02D0F2EFEEDD7
S11312E0BF2EF02D0F2EF6EFCF2EF02D0F2EF6EE93
S11312F0DF2EF02D0F2EF6ECEF2EF02D0F2EF6EC48
S1131300FF2EF02D082D192D2A2D3B2D4C2D5D2D52
S11313106E2D7F2D81E064DA812C0F2EFCE39F2E4D
S1131320F02D0F2EF8E1AF2EF02D0F2EF8E1BF2E89
S1131330F02D0F2EF8E1CF2EF02D0F2EF8E1DF2E39
S1131340F02D0F2EF8E1EF2EF02D0F2EFCE3FF2EE3
S1131350F02D082D192D2A2D3B2D4C2D5D2D6E2D94
S11313607F2D82E03DDA812C0F2EFEE79F2EF02D9B
S11313700F2EF6E0AF2EF02D0F2EF6E0BF2EF02D3F
S11313800F2EFEE3CF2EF02D0F2EF6E0DF2EF02DE4
S11313900F2EF6E0EF2EF02D0F2EF6E0FF2EF02D9F
S11313A0082D192D2A2D3B2D4C2D5D2D6E2D7F2DB5
S11313B083E016DA0FDC0000DF91CF911F910F91CB
S11313C0FF90EF90DF90CF90BF90AF909F908F9061
S11313D008958F929F92AF92BF92CF92DF92EF9235
S11313E0FF920F931F93CF93DF93CDB7DEB7A1D9AD
S11313F0812C912CA12C0F2EF7ECBF2EF02D0F2E4B
S1131400F9E2CF2EF02D0F2EF7EEDF2EF02D0F2E5A
S1131410F5E2EF2EF02D0F2EF9E2FF2EF02D082D20
S1131420192D2A2D3B2D4C2D5D2D6E2D7F2D83E006
S1131430D7D9812C912CA12C0F2EF4EABF2EF02D9C
S11314400F2EFDEACF2EF02D0F2EF5EBDF2EF02D13
S11314500F2EF5EAEF2EF02D0F2EF5EAFF2EF02DCC
S1131460082D192D2A2D3B2D4C2D5D2D6E2D7F2DF4
S113147082E0B6D9812C912CA12C6894BB24B2F8BB
S11314800F2EF2E7CF2EF02DDD24D3940F2EF2E7AA
S1131490EF2EF02D6894FF24F2F8082D192D2A2D33
S11314A03B2D4C2D5D2D6E2D7F2D81E099D98091A2
S11314B0040190910501F2D0822E932EA42EB52E14
S11314C0C62ED72EE82EF92E082D192D2A2D3B2DA8
S11314D04C2D5D2D6E2D7F2D80E082D97BDB0000AD
S11314E0DF91CF911F910F91FF90EF90DF90CF90FC
S11314F0BF90AF909F908F900895CF93DF9300D0CB
S113150000D0CDB7DEB79C838B831A8219820CC0BE
S113151089819A8101969A8389830000809186014A
S11315208823E1F31092860129813A818B819C8181
S1131530281739076CF300000F900F900F900F904D
S1131540DF91CF910895AF92BF92CF92DF92EF9245
S1131550FF920F931F93CF93DF931F92CDB7DEB704
S113156089838981882F90E0092E000CAA0BBB0B7C
S113157040E350E021E330E0841B950B2817390742
S113158008F468C0805B9F4FFC010C94761420E043
S113159038E148E258E068E07CE08EE096E062C022
S11315A020E038E148E15CE168E178E188E19EE728
S11315B059C020E03CE346E650E660E37CE086E088
S11315C09EE750C020E03CE346E650E668E370E660
S11315D086E69CE347C020E030E348E354E362E35B
S11315E07EE780E390E33EC020E03EE746E05EE332
S11315F060E670E686E69CE335C020E03CE346E620
S113160056E06EE376E686E69CE32CC020E03EE7F7
S113161046E650E360E378E188E198E123C020E006
S11316203CE346E656E66CE376E686E69CE31AC0BF
S113163020E03CE346E656E66CE770E686E69CE38B
S113164011C020E03CE346E656E76EE676E686E621
S11316509CE308C020E038E148E258E068E07CE020
S11316608EE096E0A22EB32EC42ED52EE62EF72EB3
S1131670082F192F2A2D3B2D4C2D5D2D6E2D7F2DDE
S1131680802F912F0F90DF91CF911F910F91FF9099
S1131690EF90DF90CF90BF90AF900895AF92BF923C
S11316A0CF92DF92EF92FF920F931F93CF93DF932A
S11316B000D0CDB7DEB79A83898389819A818F3030
S11316C096404CF020E03CE346E656E06CE370E6DE
S11316D086E69CE340C089819A81893795404CF025
S11316E020E03CE346E656E66EE776E686E696E6D6
S11316F032C089819A81833E94404CF020E03EE3DD
S113170046E656E66EE376E686E69EE324C08981E5
S11317109A81893E93404CF020E03CE346E656E053
S113172066E076E086E69CE316C089819A818F3E66
S113173092404CF020E03EE346E656E666E676E666
S113174086E69EE308C020E03EE746E056E06EE30E
S113175076E086E09EE7A22EB32EC42ED52EE62E8A
S1131760F72E082F192F2A2D3B2D4C2D5D2D6E2D74
S11317707F2D802F912F0F900F90DF91CF911F918C
S11317800F91FF90EF90DF90CF90BF90AF900895AE
S11317908F929F92AF92BF92CF92DF92EF92FF927D
S11317A00F931F93CF93DF9300D0CDB7DEB79A8307
S11317B0898389819A81092E000CAA0BBB0B41E015
S11317C050E020E130E0841B950B2817390708F41A
S11317D01CC48E579F4FFC010C9476148824839468
S11317E099249394AA24A394BB24B394CC24C3949F
S11317F0DD24D394EE24E394FF24F394082D192DCF
S11318002A2D3B2D4C2D5D2D6E2D7F2D82E00E94C7
S1131810F003812C912CA12CB12CC12CD12CE12CC6
S1131820F12C082D192D2A2D3B2D4C2D5D2D6E2DBF
S11318307F2D81E00E94F00335C40F2EF3E08F2E3C
S1131840F02D0F2EF3E09F2EF02D0F2EF3E0AF2E90
S1131850F02D0F2EF3E0BF2EF02D0F2EF3E0CF2E40
S1131860F02D0F2EF3E0DF2EF02D0F2EF3E0EF2EF0
S1131870F02D0F2EF3E0FF2EF02D082D192D2A2D1B
S11318803B2D4C2D5D2D6E2D7F2D82E00E94F003AB
S1131890812C912CA12CB12CC12CD12CE12CF12C1C
S11318A0082D192D2A2D3B2D4C2D5D2D6E2D7F2DB0
S11318B081E00E94F003F6C30F2EF6E08F2EF02D88
S11318C00F2EF6E09F2EF02D0F2EF6E0AF2EF02D0A
S11318D00F2EF6E0BF2EF02D0F2EF6E0CF2EF02DBA
S11318E00F2EF6E0DF2EF02D0F2EF6E0EF2EF02D6A
S11318F00F2EF6E0FF2EF02D082D192D2A2D3B2D4D
S11319004C2D5D2D6E2D7F2D82E00E94F003812CE5
S1131910912CA12CB12CC12CD12CE12CF12C082D13
S1131920192D2A2D3B2D4C2D5D2D6E2D7F2D81E003
S11319300E94F003B7C30F2EFCE08F2EF02D0F2E64
S1131940FCE09F2EF02D0F2EFCE0AF2EF02D0F2E7D
S1131950FCE0BF2EF02D0F2EFCE0CF2EF02D0F2E2D
S1131960FCE0DF2EF02D0F2EFCE0EF2EF02D0F2EDD
S1131970FCE0FF2EF02D082D192D2A2D3B2D4C2D8A
S11319805D2D6E2D7F2D82E00E94F003812C912C21
S1131990A12CB12CC12CD12CE12CF12C082D192D0A
S11319A02A2D3B2D4C2D5D2D6E2D7F2D81E00E9427
S11319B0F00378C30F2EF8E18F2EF02D0F2EF8E1EF
S11319C09F2EF02D0F2EF8E1AF2EF02D0F2EF8E103
S11319D0BF2EF02D0F2EF8E1CF2EF02D0F2EF8E1B3
S11319E0DF2EF02D0F2EF8E1EF2EF02D0F2EF8E163
S11319F0FF2EF02D082D192D2A2D3B2D4C2D5D2D5C
S1131A006E2D7F2D82E00E94F003812C912CA12C5D
S1131A10B12CC12CD12CE12CF12C082D192D2A2DFF
S1131A203B2D4C2D5D2D6E2D7F2D81E00E94F0030A
S1131A3039C30F2EF0E38F2EF02D0F2EF0E39F2EDF
S1131A40F02D0F2EF0E3AF2EF02D0F2EF0E3BF2E6E
S1131A50F02D0F2EF0E3CF2EF02D0F2EF0E3DF2E1E
S1131A60F02D0F2EF0E3EF2EF02D0F2EF0E3FF2ECE
S1131A70F02D082D192D2A2D3B2D4C2D5D2D6E2D6D
S1131A807F2D82E00E94F003812C912CA12CB12C9B
S1131A90C12CD12CE12CF12C082D192D2A2D3B2DF4
S1131AA04C2D5D2D6E2D7F2D81E00E94F003FAC236
S1131AB00F2EF0E68F2EF02D0F2EF0E69F2EF02D38
S1131AC00F2EF0E6AF2EF02D0F2EF0E6BF2EF02DE8
S1131AD00F2EF0E6CF2EF02D0F2EF0E6DF2EF02D98
S1131AE00F2EF0E6EF2EF02D0F2EF0E6FF2EF02D48
S1131AF0082D192D2A2D3B2D4C2D5D2D6E2D7F2D5E
S1131B0082E00E94F003812C912CA12CB12CC12CD9
S1131B10D12CE12CF12C082D192D2A2D3B2D4C2DE7
S1131B205D2D6E2D7F2D81E00E94F003BBC20F2E30
S1131B30F0EC8F2EF02D0F2EF0EC9F2EF02D0F2EAB
S1131B40F0ECAF2EF02D0F2EF0ECBF2EF02D0F2E5B
S1131B50F0ECCF2EF02D0F2EF0ECDF2EF02D0F2E0B
S1131B60F0ECEF2EF02D0F2EF0ECFF2EF02D082DC3
S1131B70192D2A2D3B2D4C2D5D2D6E2D7F2D82E0B0
S1131B800E94F003812C912CA12CB12CC12CD12CBE
S1131B90E12CF12C082D192D2A2D3B2D4C2D5D2DDA
S1131BA06E2D7F2D81E00E94F0037CC2689488240E
S1131BB087F86894992497F86894AA24A7F86894F5
S1131BC0BB24B7F86894CC24C7F86894DD24D7F80C
S1131BD06894EE24E7F86894FF24F7F8082D192D8B
S1131BE02A2D3B2D4C2D5D2D6E2D7F2D82E00E94E4
S1131BF0F0038824839499249394AA24A394BB2463
S1131C00B394CC24C394DD24D394EE24E394FF242E
S1131C10F394082D192D2A2D3B2D4C2D5D2D6E2D61
S1131C207F2D81E00E94F0033DC2812C912CA12CD8
S1131C30B12CC12CD12CE12CF12C082D192D2A2DDD
S1131C403B2D4C2D5D2D6E2D7F2D82E00E94F003E7
S1131C500F2EF3E08F2EF02D0F2EF3E09F2EF02D9C
S1131C600F2EF3E0AF2EF02D0F2EF3E0BF2EF02D4C
S1131C700F2EF3E0CF2EF02D0F2EF3E0DF2EF02DFC
S1131C800F2EF3E0EF2EF02D0F2EF3E0FF2EF02DAC
S1131C90082D192D2A2D3B2D4C2D5D2D6E2D7F2DBC
S1131CA081E00E94F003FEC1812C912CA12CB12C67
S1131CB0C12CD12CE12CF12C082D192D2A2D3B2DD2
S1131CC04C2D5D2D6E2D7F2D82E00E94F0030F2E92
S1131CD0F6E08F2EF02D0F2EF6E09F2EF02D0F2E16
S1131CE0F6E0AF2EF02D0F2EF6E0BF2EF02D0F2EC6
S1131CF0F6E0CF2EF02D0F2EF6E0DF2EF02D0F2E76
S1131D00F6E0EF2EF02D0F2EF6E0FF2EF02D082D2D
S1131D10192D2A2D3B2D4C2D5D2D6E2D7F2D81E00F
S1131D200E94F003BFC1812C912CA12CB12CC12C99
S1131D30D12CE12CF12C082D192D2A2D3B2D4C2DC5
S1131D405D2D6E2D7F2D82E00E94F0030F2EFCE0AE
S1131D508F2EF02D0F2EFCE09F2EF02D0F2EFCE089
S1131D60AF2EF02D0F2EFCE0BF2EF02D0F2EFCE039
S1131D70CF2EF02D0F2EFCE0DF2EF02D0F2EFCE0E9
S1131D80EF2EF02D0F2EFCE0FF2EF02D082D192D37
S1131D902A2D3B2D4C2D5D2D6E2D7F2D81E00E9433
S1131DA0F00380C1812C912CA12CB12CC12CD12CFD
S1131DB0E12CF12C082D192D2A2D3B2D4C2D5D2DB8
S1131DC06E2D7F2D82E00E94F0030F2EF8E18F2EFE
S1131DD0F02D0F2EF8E19F2EF02D0F2EF8E1AF2EEF
S1131DE0F02D0F2EF8E1BF2EF02D0F2EF8E1CF2E9F
S1131DF0F02D0F2EF8E1DF2EF02D0F2EF8E1EF2E4F
S1131E00F02D0F2EF8E1FF2EF02D082D192D2A2D7F
S1131E103B2D4C2D5D2D6E2D7F2D81E00E94F00316
S1131E2041C1812C912CA12CB12CC12CD12CE12CA1
S1131E30F12C082D192D2A2D3B2D4C2D5D2D6E2DA9
S1131E407F2D82E00E94F0030F2EF0E38F2EF02D01
S1131E500F2EF0E39F2EF02D0F2EF0E3AF2EF02D7A
S1131E600F2EF0E3BF2EF02D0F2EF0E3CF2EF02D2A
S1131E700F2EF0E3DF2EF02D0F2EF0E3EF2EF02DDA
S1131E800F2EF0E3FF2EF02D082D192D2A2D3B2DBA
S1131E904C2D5D2D6E2D7F2D81E00E94F00302C13B
S1131EA0812C912CA12CB12CC12CD12CE12CF12C06
S1131EB0082D192D2A2D3B2D4C2D5D2D6E2D7F2D9A
S1131EC082E00E94F0030F2EF0E68F2EF02D0F2EED
S1131ED0F0E69F2EF02D0F2EF0E6AF2EF02D0F2EF4
S1131EE0F0E6BF2EF02D0F2EF0E6CF2EF02D0F2EA4
S1131EF0F0E6DF2EF02D0F2EF0E6EF2EF02D0F2E54
S1131F00F0E6FF2EF02D082D192D2A2D3B2D4C2DFA
S1131F105D2D6E2D7F2D81E00E94F003C3C0812CC6
S1131F20912CA12CB12CC12CD12CE12CF12C082DFD
S1131F30192D2A2D3B2D4C2D5D2D6E2D7F2D82E0EC
S1131F400E94F0030F2EF0EC8F2EF02D0F2EF0ECEC
S1131F509F2EF02D0F2EF0ECAF2EF02D0F2EF0EC67
S1131F60BF2EF02D0F2EF0ECCF2EF02D0F2EF0EC17
S1131F70DF2EF02D0F2EF0ECEF2EF02D0F2EF0ECC7
S1131F80FF2EF02D082D192D2A2D3B2D4C2D5D2DC6
S1131F906E2D7F2D81E00E94F00384C0812C912C52
S1131FA0A12CB12CC12CD12CE12CF12C082D192DF4
S1131FB02A2D3B2D4C2D5D2D6E2D7F2D82E00E9410
S1131FC0F0036894882487F86894992497F86894AF
S1131FD0AA24A7F86894BB24B7F86894CC24C7F85B
S1131FE06894DD24D7F86894EE24E7F86894FF2415
S1131FF0F7F8082D192D2A2D3B2D4C2D5D2D6E2D16
S11320007F2D81E00E94F0034DC0812C0F2EF8E15A
S11320109F2EF02D0F2EF8E2AF2EF02D6894BB24E6
S1132020B3F86894CC24C3F80F2EFCE0DF2EF02D17
S11320300F2EFEE0EF2EF02D0F2EF6E0FF2EF02DEA
S1132040082D192D2A2D3B2D4C2D5D2D6E2D7F2D08
S113205082E00E94F003812C0F2EF8E19F2EF02DD8
S11320600F2EF8E2AF2EF02D6894BB24B3F86894D9
S1132070CC24C3F80F2EFCE0DF2EF02D0F2EFEE053
S1132080EF2EF02D0F2EF6E0FF2EF02D082D192D3A
S11320902A2D3B2D4C2D5D2D6E2D7F2D81E00E9430
S11320A0F003000000000F900F90DF91CF911F917B
S11320B00F91FF90EF90DF90CF90BF90AF909F90E3
S11320C08F9008958F929F92AF92BF92CF92DF929A
S11320D0EF92FF920F931F93CF93DF93CDB7DEB7A9
S11320E028970FB6F894DEBF0FBECDBF8091BC0118
S11320F0882F90E082309105A9F1833091052CF46A
S1132100009759F0019769F078C08330910509F47C
S113211061C0049709F46AC070C081E08093BC0177
S11321206CC00E94E2018134A1F483E08093BC017D
S113213010928B0180910401909105014AE050E0D6
S113214062EB71E00ED462EB71E081E00E942C013D
S113215054C00E94E201823409F04CC084E08093B0
S1132160BC014BC080910401909105014AE050E00C
S113217062EB71E0F6D362EB71E081E00E942C0126
S11321800E9499030E94EA0588EC90E0B6D91A826D
S113219019820EC067D880E590E0AFD90E94860806
S11321A080E590E0AAD989819A8101969A838983EE
S11321B089819A81049774F30CD988E592E09DD9BA
S11321C00E94E201882309F4FBCF000081E08093A0
S11321D0BC0113C00E9499030E94EA0580918B01FF
S11321E0803250F082E08093BC0106C081E080938D
S11321F0BC0103C0000001C000008091BC01882F15
S113220090E08130910551F08330910509F44AC082
S1132210892B09F04AC110928C014AC180918C012A
S1132220882331F580910401909105014AE050E042
S113223062EB71E096D366E671E081E00E942C01C6
S11322401C821B820FC00E94900884E190E055D943
S11322500E94860884E190E050D98B819C8101968C
S11322609C838B838B819C8103976CF30E949008E1
S11322700E94E2018A3229F481E00E941C050E9436
S1132280EA050E94E201833229F481E00E945E049F
S11322900E94EA0581E080938C011092050110925E
S11322A0040106C110928C0180918B018823F9F4FA
S11322B08091060148D9822E932EA42EB52EC62EC7
S11322C0D72EE82EF92E082D192D2A2D3B2D4C2D15
S11322D05D2D6E2D7F2D83E00E94F0030E94EA05A0
S11322E084E690E00AD90E9499030E94EA0581E0FD
S11322F090E09E838D8381E090E098878F83A0C0D7
S11323000000809186018823E1F3109286018F8179
S11323109885019709F049C080918B01882F90E03E
S11323208A5F9E4FFC0180810ED9822E932EA42EAB
S1132330B52EC62ED72EE82EF92E082D192D2A2DAE
S11323403B2D4C2D5D2D6E2D7F2D83E00E94F003DF
S11323500F2EF3E08F2EF02D0F2EF3E09F2EF02D95
S11323600F2EF3E0AF2EF02D0F2EF3E0BF2EF02D45
S11323700F2EF3E0CF2EF02D0F2EF3E0DF2EF02DF5
S11323800F2EF3E0EF2EF02D0F2EF3E0FF2EF02DA5
S1132390082D192D2A2D3B2D4C2D5D2D6E2D7F2DB5
S11323A082E00E94F0030E94EA050E94E201282FC5
S11323B080918B01882F90E08A5F9E4FFC01808181
S11323C0281749F480910401909105010196909396
S11323D00501809304018F8198852AE030E0B901DA
S11323E072D2892B41F48D819E81D2D98D819E81B7
S11323F001969E838D838F81988525E030E0B90115
S113240062D2892B11F40E94EA058F81988524E118
S113241030E0B90158D2892B71F480910401909174
S113242005014AE050E062EB71E09BD262EB71E09F
S113243081E00E942C018F819885019698878F8373
S11324408F819885092E000CAA0BBB0BBC01CD0112
S113245023D16B017C0180918B01882F90E0880F40
S1132460991F8A5D9E4FFC0180819181CC01A0E07F
S1132470B0E0BC01CD010ED1DC01CB0120E030E0A5
S113248040EE5FE3BC01CD01BBD1DC01CB019C017B
S1132490AD01C701B60161D018160CF031CF80919F
S11324A08B018F5F80938B0103C010928C0100001D
S11324B0000028960FB6F894DEBF0FBECDBFDF91A3
S11324C0CF911F910F91FF90EF90DF90CF90BF902D
S11324D0AF909F908F900895CF93DF93CDB7DEB7E1
S11324E087E290E02FEFFC01208388E290E0FC017A
S11324F010828AE290E02FEFFC0120838BE290E0CF
S1132500FC01108281E290E020EFFC01208382E252
S113251090E02FE0FC01208384E290E02FEFFC01A7
S1132520208385E290E0FC0110820E94BD000E949D
S113253099030E94EA0565E070E080E090E00E9463
S1132540C2020E94F0021092BC010E9470080E9414
S1132550E20180938D01B6DDFACFD9D008F481E091
S113256008950CD00FC107D140F0FED030F021F413
S11325705F3F19F0F0C0511139C1F3C014D198F381
S11325809923C9F35523B1F3951B550BBB27AA27F0
S113259062177307840738F09F5F5F4F220F331F62
S11325A0441FAA1FA9F333D00E2E3AF0E0E830D02E
S11325B091505040E695001CCAF729D0FE2F27D031
S11325C0660F771F881FBB1F261737074807AB07FF
S11325D0B0E809F0BB0B802DBF01FF2793585F4F74
S11325E02AF09E3F510568F0B6C000C15F3FECF38E
S11325F0983EDCF3869577956795B795F7959F5F39
S1132600C9F7880F911D9695879597F90895E1E08C
S1132610660F771F881FBB1F621773078407BA07EB
S113262020F0621B730B840BBA0BEE1F88F7E09546
S1132630089504D06894B111D9C00895BCD088F02D
S11326409F5790F0B92F9927B751A0F0D1F0660F9A
S1132650771F881F991F1AF0BA95C9F712C0B130B5
S113266081F0C3D0B1E00895C0C0672F782F8827C8
S1132670B85F39F0B93FCCF3869577956795B395F4
S1132680D9F73EF490958095709561957F4F8F4F63
S11326909F4F0895E89409C097FB3EF49095809568
S11326A0709561957F4F8F4F9F4F9923A9F0F92F14
S11326B096E9BB279395F695879577956795B79592
S11326C0F111F8CFFAF4BB0F11F460FF1BC06F5F78
S11326D07F4F8F4F9F4F16C0882311F096E911C08A
S11326E0772321F09EE8872F762F05C0662371F0AB
S11326F096E8862F70E060E02AF09A95660F771FBF
S1132700881FDAF7880F9695879597F90895990F9A
S11327100008550FAA0BE0E8FEEF16161706E807A7
S1132720F907C0F012161306E407F50798F0621BC8
S1132730730B840B950B39F40A2661F0232B242B9D
S1132740252B21F408950A2609F4A140A6958FEFBC
S1132750811D811D089597F99F6780E870E060E00E
S113276008959FEF80EC089500240A941616170626
S113277018060906089500240A941216130614066E
S113278005060895092E0394000C11F4882352F0D1
S1132790BB0F40F4BF2B11F460FF04C06F5F7F4F89
S11327A08F4F9F4F089557FD9058440F551F59F070
S11327B05F3F71F04795880F97FB991F61F09F3F2A
S11327C079F087950895121613061406551FF2CF53
S11327D04695F1DF08C0161617061806991FF1CFA3
S11327E086957105610508940895E894BB276627CA
S11327F07727CB0197F908958ADF08F48FEF0895BE
S11328000BD0C0CFB1DF28F0B6DF18F0952309F064
S1132810A2CFA7CF1124EACFC6DFA0F3959FD1F3AF
S1132820950F50E0551F629FF001729FBB27F00D7A
S1132830B11D639FAA27F00DB11DAA1F649F6627CF
S1132840B00DA11D661F829F2227B00DA11D621F1E
S1132850739FB00DA11D621F839FA00D611D221FD8
S1132860749F3327A00D611D231F849F600D211DBC
S1132870822F762F6A2F11249F5750408AF0E1F05F
S113288088234AF0EE0FFF1FBB1F661F771F881FA8
S113289091505040A9F79E3F510570F05CCFA6CFF0
S11328A05F3FECF3983EDCF3869577956795B79593
S11328B0F795E7959F5FC1F7FE2B880F911D9695BD
S11328C0879597F9089597FB072E16F4009406D080
S11328D077FD08D032D007FC05D03EF49095819561
S11328E09F4F0895709561957F4F0895EE0FFF1FD8
S11328F00024001C0BBE0790F691E02D099497FB71
S113290010F8169400080F93083098F00850232FFD
S1132910342F452F562F672F782F892F902DF4CFE2
S11329200594979587957795679557954795379526
S113293027950A95AAF70F910895AA1BBB1B51E18D
S113294007C0AA1FBB1FA617B70710F0A61BB70B1B
S1132950881F991F5A95A9F780959095BC01CD01C0
S113296008954532510518F4423008F004C0FB01C3
S11329701082CB010895BB274A3031F4992322F405
S1132980BDE2909581959F4F01C0BB27FB01552760
S1132990AA27880F991FAA1FA41710F0A41B8395B8
S11329A05051B9F7A05DAA3308F0A95DA19300972F
S11329B079F7B111B1931192CB0100C0DC01FC0194
S11329C0672F71917723E1F7329704C07C916D935F
S11329D070836291AE17BF07C8F30895F894FFCFD0
S11329E001000000010031323331313233313334EC
S11329F03533343535363534333135363534333192
S1132A003235313235313200320032003200320098
S1132A1032003200320032003200640032003200F0
S1132A20640019001900190019003200320019005D
S1132A30190019001900320032003200320064001B
S1132A4032003200640041203D20746573745F736A
S1132A506F6E672C2042203D2053656E626F6E5A64
S1092A60616B7572610058
S9030000FC
